{
  "contractName": "VoteTracker",
  "abi": [
    {
      "inputs": [],
      "payable": false,
      "stateMutability": "nonpayable",
      "type": "constructor"
    },
    {
      "constant": true,
      "inputs": [],
      "name": "itemCount",
      "outputs": [
        {
          "internalType": "uint256",
          "name": "",
          "type": "uint256"
        }
      ],
      "payable": false,
      "stateMutability": "view",
      "type": "function"
    },
    {
      "constant": true,
      "inputs": [
        {
          "internalType": "uint256",
          "name": "",
          "type": "uint256"
        }
      ],
      "name": "items",
      "outputs": [
        {
          "internalType": "string",
          "name": "name",
          "type": "string"
        },
        {
          "internalType": "uint256",
          "name": "voteCount",
          "type": "uint256"
        },
        {
          "internalType": "uint256",
          "name": "id",
          "type": "uint256"
        }
      ],
      "payable": false,
      "stateMutability": "view",
      "type": "function"
    },
    {
      "constant": true,
      "inputs": [
        {
          "internalType": "address",
          "name": "",
          "type": "address"
        }
      ],
      "name": "voters",
      "outputs": [
        {
          "internalType": "bool",
          "name": "",
          "type": "bool"
        }
      ],
      "payable": false,
      "stateMutability": "view",
      "type": "function"
    },
    {
      "constant": false,
      "inputs": [
        {
          "internalType": "uint256",
          "name": "_itemId",
          "type": "uint256"
        }
      ],
      "name": "vote",
      "outputs": [],
      "payable": false,
      "stateMutability": "nonpayable",
      "type": "function"
    }
  ],
  "bytecode": "0x608060405234801561001057600080fd5b506100556040518060400160405280600781526020017f426974636f696e0000000000000000000000000000000000000000000000000081525061016a60201b60201c565b6100996040518060400160405280600881526020017f457468657265756d00000000000000000000000000000000000000000000000081525061016a60201b60201c565b6100dd6040518060400160405280600881526020017f4c697465636f696e00000000000000000000000000000000000000000000000081525061016a60201b60201c565b6101216040518060400160405280600881526020017f46696c65636f696e00000000000000000000000000000000000000000000000081525061016a60201b60201c565b6101656040518060400160405280600881526020017f446f6765636f696e00000000000000000000000000000000000000000000000081525061016a60201b60201c565b61028a565b600260008154809291906001019190505550604051806060016040528082815260200160008152602001600254815250600080600254815260200190815260200160002060008201518160000190805190602001906101ca9291906101e5565b50602082015181600101556040820151816002015590505050565b828054600181600116156101000203166002900490600052602060002090601f016020900481019282601f1061022657805160ff1916838001178555610254565b82800160010185558215610254579182015b82811115610253578251825591602001919060010190610238565b5b5090506102619190610265565b5090565b61028791905b8082111561028357600081600090555060010161026b565b5090565b90565b6103bc806102996000396000f3fe608060405234801561001057600080fd5b506004361061004c5760003560e01c80630121b93f146100515780636bfb0d011461007f578063a3ec138d1461009d578063bfb231d2146100f9575b600080fd5b61007d6004803603602081101561006757600080fd5b81019080803590602001909291905050506101ae565b005b61008761029f565b6040518082815260200191505060405180910390f35b6100df600480360360208110156100b357600080fd5b81019080803573ffffffffffffffffffffffffffffffffffffffff1690602001909291905050506102a5565b604051808215151515815260200191505060405180910390f35b6101256004803603602081101561010f57600080fd5b81019080803590602001909291905050506102c5565b6040518080602001848152602001838152602001828103825285818151815260200191508051906020019080838360005b83811015610171578082015181840152602081019050610156565b50505050905090810190601f16801561019e5780820380516001836020036101000a031916815260200191505b5094505050505060405180910390f35b600160003373ffffffffffffffffffffffffffffffffffffffff1673ffffffffffffffffffffffffffffffffffffffff16815260200190815260200160002060009054906101000a900460ff161561020557600080fd5b60008111801561021757506002548111155b61022057600080fd5b60018060003373ffffffffffffffffffffffffffffffffffffffff1673ffffffffffffffffffffffffffffffffffffffff16815260200190815260200160002060006101000a81548160ff0219169083151502179055506000808281526020019081526020016000206001016000815480929190600101919050555050565b60025481565b60016020528060005260406000206000915054906101000a900460ff1681565b6000602052806000526040600020600091509050806000018054600181600116156101000203166002900480601f0160208091040260200160405190810160405280929190818152602001828054600181600116156101000203166002900480156103715780601f1061034657610100808354040283529160200191610371565b820191906000526020600020905b81548152906001019060200180831161035457829003601f168201915b505050505090806001015490806002015490508356fea265627a7a72315820c35c3d69e9d646b73910f341f4a4061c6310ab56b16211aba02bc83d3839bf7264736f6c63430005100032",
  "source": "pragma solidity ^0.5.16;\n\ncontract VoteTracker {\n    struct Item {\n        string name;\n        uint256 voteCount;\n        uint256 id;\n    }\n\n    mapping(uint256 => Item) public items;\n    mapping(address => bool) public voters;\n\n    uint256 public itemCount;\n\n    constructor() public {\n        addItem(\"Bitcoin\");\n        addItem(\"Ethereum\");\n        addItem(\"Litecoin\");\n        addItem(\"Filecoin\");\n        addItem(\"Dogecoin\");\n    }\n\n    function addItem(string memory _name) private {\n        itemCount++;\n        items[itemCount] = Item(_name, 0, itemCount);\n    }\n\n    function vote(uint256 _itemId) public {\n        require(!voters[msg.sender]);\n        require(_itemId > 0 && _itemId <= itemCount);\n\n        voters[msg.sender] = true;\n        items[_itemId].voteCount++;\n    }\n}\n",
  "sourcePath": "/home/justin/voteTrack/contracts/VoteTracker.sol",
  "compiler": {
    "name": "solc",
    "version": "0.5.16+commit.9c3226ce.Emscripten.clang"
  },
  "schemaVersion": "3.3.4",
  "updatedAt": "2021-03-13T08:43:22.788Z",
  "networkType": "ethereum",
  "devdoc": {
    "methods": {}
  },
  "userdoc": {
    "methods": {}
  }
}